:100000000C9450000C9462000C9462000C946200FA
:100010000C9462000C9462000C9462000C946200D8
:100020000C9462000C9462000C9462000C946200C8
:100030000C9462000C9462000C9462000C946200B8
:100040000C9462000C9462000C9462000C946200A8
:100050000C9462000C9462000C9462000C94620098
:100060000C9462000C9462000C9462000C94620088
:100070000C9462000C9462000C9462000C94620078
:100080000C9462000C9462000C9462000C94620068
:100090000C9462000C9462000C9462000C94620058
:1000A00011241FBECFEFCDBFDFE3DEBF28E2A0E00B
:1000B000B8E201C01D92A235B207E1F70E946400C8
:1000C0000C9442040C9400000E9401010E947800EC
:1000D00002C00E941E010E9433020E940801811585
:1000E000D1F30E940F018115A1F30E942404F3CFE4
:1000F00088ED84BF109261008FE78093E205E0E213
:10010000F4E080818061808380818F7D808383E0C3
:10011000809367088BE292E0809368089093690867
:1001200080EC80936608E5E6F8E08081806A808351
:1001300008958091640887FB882780F9089580914D
:1001400064088115E4F7809160080895909164082F
:1001500095FFFCCF8093620808958091640885FB29
:10016000882780F90895A62FB72F642F752F20E0D8
:1001700030E012C0FD01E20FF31F4081FC01E427D3
:10018000FF27EE0FFF1FE857F74B40815181FA011F
:10019000E927CF012F5F3F4F261737075CF30895FC
:1001A00040914F284B3058F180910A288093502875
:1001B000642F6650770B8617170611F080E00895BC
:1001C0004450550B69E078E28FEF9FEF0E94B30037
:1001D000BC0140914F2850E0FA01EB5FF74D2081C0
:1001E00030E0322F22274A5F574DFA018081280FD5
:1001F000311D81E06217730711F380E0089580E0FC
:10020000089510924E2810924F280E947800089569
:1002100081E090914E28983009F080E00895909107
:100220000F289F7081E0911180E0089590910F2830
:100230009F7081E0913009F080E0089510924E287F
:100240000895CF93DF93C0910028C11119C0809108
:100250004E28883009F082C080910A2890E00696E6
:10026000809306289093072810920428109205285E
:100270001092022889E080934E2881E08093002824
:10028000C0E01EC0809101280E94A60010920228A2
:1002900080910428909105280196809304289093DA
:1002A0000528CF5F0DC08D2F0E94A60080910428E5
:1002B0009091052801968093042890930528CF5F9C
:1002C00080910028813061F4209104283091052824
:1002D00080910628909107282817390708F051C007
:1002E0000E94AD008115D1F1809100288130B1F5D7
:1002F000809102288111C6CF409104285091052891
:10030000FA01E85FF74DD08120910A2830E04330B0
:10031000510548F22D5F3F4F2417350720F283E83F
:100320008D0F823070F08D2F0E94A60080910428DE
:100330009091052801968093042890930528CF5F1B
:10034000BFCF8DE70E94A600D052D09301280E9413
:10035000AD00811107C081E0809302288C2FDF91CE
:10036000CF910895809101280E94A60080910428D1
:100370009091052801968093042890930528CF5FDB
:100380009FCF1092032810920428109205281092F3
:100390000628109207281092022810924E281092D8
:1003A0000028DCCFCF93DF930E940801811103C0A6
:1003B000DF91CF910895C8E0D8E21A868091512844
:1003C0008B871C8688858F7788878D819C819D830C
:1003D0008C838AE08A838E8198E089278E83806C63
:1003E0008E834CE050E069E078E28FEF9FEF0E944F
:1003F000B3009D878E878EE78F870E942101D8CF1B
:10040000CF93DF930E940801811103C0DF91CF9148
:100410000895C8E0D8E21A8684E08B8791E09C8733
:1004200092E09D878E8785E08F8788858F77888784
:100430008E8198E089278E83806C8E838D819C814C
:100440009D838C838DE08A834FE050E069E078E201
:100450008FEF9FEF0E94B300988B898B8EE78A8B7A
:100460000E942101D3CF80914E28893039F0883005
:1004700051F00E94990081110BC008950E94210142
:1004800008950E949F000E9499008111FACF08955B
:100490000E949F0090914E28943009F486C080F00D
:1004A000973009F4C0C008F03FC0953009F48BC004
:1004B0009630C9F58E3709F494C010924E280895ED
:1004C000923009F447C088F49130A0F169F4E091CA
:1004D0004F289E0F90934F28F0E0E85FF74D808300
:1004E00082E080934E28089508959330D9F48D3793
:1004F00009F44AC08E3709F44BC0E0914F2891E0CF
:100500009E0F90934F28F0E0E85FF74D8083809135
:1005100050288150809350288111AFCF84E0809380
:100520004E28089508950895993019F40E942101E4
:10053000089508958E3709F0A0CF10925028109298
:100540004F2881E080934F289EE79093082880935E
:100550004E280895E0914F2891E09E0F90934F28E8
:10056000F0E0E85FF74D808380935028890F99274A
:10057000991F05968734910518F010924E2808951A
:1005800083E080934E28089587E080934E28089555
:100590001092502810924F2881E080934F289EE7B8
:1005A0009093082880934E280895E0914F2891E079
:1005B0009E0F90934F28F0E0E85FF74D808385E031
:1005C00080934E280895E0914F2891E09E0F9093DC
:1005D0004F28F0E0E85FF74D808386E080934E2857
:1005E0000895E0914F2891E09E0F90934F28F0E0FE
:1005F000E85FF74D80830E94D000811589F08091DB
:100600000C289FEF980F9E3F38F49091512898172F
:1006100019F010924E28089588E080934E2808958E
:1006200010924E28089593EA980F923028F08E3752
:10063000E9F010924E280895805EE0914F2891E0F5
:100640009E0F90934F28F0E0E85FF74D80838091F4
:100650005028815080935028811104C084E08093F9
:100660004E28089583E080934E28089510925028D4
:1006700010924F2881E080934F289EE7909308289E
:1006800080934E2808951F93CF93DF930F92CDB799
:10069000DEB70E940801811509F44CC0E8E0F8E2D9
:1006A0008285182F12709385998381FD08C0892F48
:1006B00081508E3F08F443C080E112E002C080E127
:1006C00012E0109312288093132880915128809370
:1006D000142810921528809110288F778093102865
:1006E00080910E2898E0892780930E28806C809353
:1006F0000E2880910D2890910C2890930D288093BE
:100700000C288BE080930A284DE050E069E078E205
:100710008FEF9FEF0E94B3009093162880931728C5
:100720008EE7809318280E942101111103C089814E
:10073000809351280F90DF91CF911F910895812FC1
:10074000C0CFCF93DF930E9408018115C9F180913A
:100750001228811138C0E8E0F8E2128681E0838730
:10076000848793E0958786871786C0E1D0E0E8E02C
:10077000F8E280858F778087868198E08927868355
:10078000806C868385819481958384838C2F8350AC
:100790008283AE014150510969E078E28FEF9FEF0B
:1007A0000E94B300FE01E85FF74D9083FE01E75F12
:1007B000F74D8083C65FD74D8EE788830E94210165
:1007C000DF91CF9108958F3F41F0E8E0F8E280E8B3
:1007D00082871386CCE0D0E0CACFE8E0F8E2128648
:1007E00081E08387848793E0958786871786C0E1B9
:1007F000D0E0BDCFCF93DF930E940801811103C0E9
:10080000DF91CF910895C8E0D8E285E08A87888596
:100810008F7788878E8198E089278E83806C8E837E
:100820008D812C812D838C839A834AE050E069E08E
:1008300078E28FEF9FEF0E94B3009B878C878EE753
:100840008D870E942101DCCF80911128813049F0F1
:10085000823051F0843059F0853061F00E94FA0303
:1008600008950E94430308950E94D20108950E94B2
:10087000A10308950E94000208958FEF9FEF08954D
:0808800081E00895F894FFCF18
:100888000000891112239B322446AD573665BF7488
:10089800488CC19D5AAFD3BE6CCAE5DB7EE9F7F838
:1008A8008110080193331A22A5562C47B7753E6468
:1008B800C99C408DDBBF52AEEDDA64CBFFF976E818
:1008C80002218B30100299132667AF763444BD5548
:1008D8004AADC3BC588ED19F6EEBE7FA7CC8F5D9F8
:1008E80083310A2091121803A7772E66B5543C4528
:1008F800CBBD42ACD99E508FEFFB66EAFDD874C9D8
:1009080004428D5316619F702004A9153227BB3607
:100918004CCEC5DF5EEDD7FC6888E1997AABF3BAB7
:1009280085520C4397711E60A1142805B3373A26E7
:10093800CDDE44CFDFFD56ECE9986089FBBB72AA97
:1009480006638F7214409D512225AB343006B917C7
:100958004EEFC7FE5CCCD5DD6AA9E3B8788AF19B77
:1009680087730E6295501C41A3352A24B1163807A7
:10097800CFFF46EEDDDC54CDEBB962A8F99A708B57
:10098800088481951AA793B62CC2A5D33EE1B7F087
:100998004008C919522BDB3A644EED5F766DFF7C37
:1009A800899400859BB712A6ADD224C3BFF136E067
:1009B800C1184809D33B5A2AE55E6C4FF77D7E6C17
:1009C8000AA583B4188691972EE3A7F23CC0B5D147
:1009D8004229CB38500AD91B666FEF7E744CFD5DF7
:1009E8008BB502A499961087AFF326E2BDD034C127
:1009F800C3394A28D11A580BE77F6E6EF55C7C4DD7
:100A08000CC685D71EE597F42880A1913AA3B3B206
:100A1800444ACD5B5669DF78600CE91D722FFB3EB6
:100A28008DD604C79FF516E4A9902081BBB332A2E6
:100A3800C55A4C4BD7795E68E11C680DF33F7A2E96
:100A48000EE787F61CC495D52AA1A3B03882B193C6
:100A5800466BCF7A5448DD59622DEB3C700EF91F76
:100A68008FF706E69DD414C5ABB122A0B9923083A6
:100A7800C77B4E6AD5585C49E33D6A2CF11E780F56
:00000001FF
